:100000000C9446000C9465000C9465000C946500FB
:100010000C9465000C9465000C9465000C946500CC
:100020000C9465000C9465000C9465000C946500BC
:100030000C9465000C94DE000C9465000C94650033
:100040000C9465000C9465000C9465000C9465009C
:100050000C9465000C9465000C9465000C9465008C
:100060000C9465000C9465000C9465000C9465007C
:100070000C9465000C9465000C9465000C9465006C
:100080000C9465000C9465000C94650011241FBE4F
:10009000CFEFD0E4DEBFCDBF11E0A0E0B1E0EEE0F5
:1000A000F4E000E00BBF02C007900D92A631B1074B
:1000B000D9F721E0A6E1B1E001C01D92AF31B2074E
:1000C000E1F70E94D9010C9405020C940000CF9333
:1000D000DF9300D01F92CDB7DEB789837B836A831D
:1000E00089818A3031F48A819B81BC018DE00E9434
:1000F000670080EC90E0FC018081882F90E08072A6
:100100009927892BB1F386EC90E02981FC012083AB
:1001100080E090E00F900F900F90DF91CF910895C5
:10012000CF93DF93CDB7DEB781E890E02BE0FC0101
:10013000208388E890E02DE730E0FC0131832083C4
:100140008FE690E022E0FC01208384E890E0FC014F
:100150001182108280910E0190910F01A0911001E7
:10016000B09111018093170190931801A093190188
:10017000B0931A018FE590E02FE530E0F90120817E
:100180002068FC0120830000DF91CF910895CF9378
:10019000DF93CDB7DEB781E890E0FC01108200006C
:1001A000DF91CF910895CF93DF93CDB7DEB781E094
:1001B000809316010000DF91CF9108951F920F9256
:1001C00000905F000F92112400905B000F922F931C
:1001D0003F934F935F936F937F938F939F93AF93CF
:1001E000BF93EF93FF93CF93DF93CDB7DEB78091AB
:1001F000170190911801A0911901B0911A0101976E
:10020000A109B1098093170190931801A0931901D6
:10021000B0931A018091170190911801A0911901D2
:10022000B0911A01892B8A2B8B2B91F40E94D30059
:1002300080910E0190910F01A0911001B0911101D8
:100240008093170190931801A0931901B0931A019C
:100250000000DF91CF91FF91EF91BF91AF919F91FE
:100260008F917F916F915F914F913F912F910F905F
:1002700000925B000F9000925F000F901F90189506
:10028000CF93DF9300D000D0CDB7DEB769837A83F8
:100290008B839C8389819A81AB81BC8180930E0181
:1002A00090930F01A0931001B093110180910E0162
:1002B00090910F01A0911001B0911101809317014D
:1002C00090931801A0931901B0931A0100000F90A8
:1002D0000F900F900F90DF91CF910895CF93DF9300
:1002E000CDB7DEB780911C0190911D018130910541
:1002F00079F08130910518F00297D9F02EC0109254
:100300001B0181E090E090931D0180931C0125C0AA
:1003100080E290E0FC018081882F90E08170992735
:10032000892BC1F482E090E090931D0180931C0121
:1003300011C080E290E0FC018081882F90E0817004
:100340009927892B49F481E090E090931D018093D7
:100350001C0102C0000001C0000080911C019091AE
:100360001D018130910531F081309105D8F002975F
:10037000D9F01BC085E290E020911B01222F30E0D4
:100380002E5E3E4FF9012081FC01208380911B01EC
:10039000833021F080911B018F5F01C080E080934A
:1003A0001B0103C0000001C000000000DF91CF91DD
:1003B0000895CF93DF93CDB7DEB781E290E0FC01E3
:1003C000108282E290E02FEFFC01208384E290E033
:1003D0002FEFFC01208385E290E0FC011082109257
:1003E0001D0110921C0168E270E080E090E00E9424
:1003F00040010E9490000E946E0100008091160151
:0E0400008823E1F310921601F6CFF894FFCF97
:10040E000000000200000000670000000000010074
:06041E00000001020402CF
:00000001FF
