:100000000C944E000C946D000C946D000C946D00DB
:100010000C946D000C946D000C946D000C946D00AC
:100020000C946D000C946D000C946D000C946D009C
:100030000C946D000C94E6000C946D000C946D0013
:100040000C946D000C946D000C946D000C946D007C
:100050000C946D000C946D000C946D000C946D006C
:100060000C946D000C946D000C946D000C946D005C
:100070000C946D000C946D000C946D000C946D004C
:100080000C946D000C946D000C946D0090017E0238
:10009000A001E301EA01F1012A02620211241FBE5C
:1000A000CFEFD0E4DEBFCDBF11E0A0E0B1E0EAE2E7
:1000B000F6E000E00BBF02C007900D92A231B1073D
:1000C000D9F721E0A2E1B1E001C01D92AB31B20746
:1000D000E1F70E94DC020C9413030C940000CF9310
:1000E000DF9300D01F92CDB7DEB789837B836A830D
:1000F00089818A3031F48A819B81BC018DE00E9424
:100100006F0080EC90E0FC018081882F90E080728D
:100110009927892BB1F386EC90E02981FC0120839B
:1001200080E090E00F900F900F90DF91CF910895B5
:10013000CF93DF93CDB7DEB781E890E02BE0FC01F1
:10014000208388E890E02DE730E0FC0131832083B4
:100150008FE690E022E0FC01208384E890E0FC013F
:100160001182108280910E0190910F01A0911001D7
:10017000B09111018093130190931401A093150184
:10018000B09316018FE590E02FE530E0F901208172
:100190002068FC0120830000DF91CF910895CF9368
:1001A000DF93CDB7DEB781E890E0FC01108200005C
:1001B000DF91CF910895CF93DF93CDB7DEB781E084
:1001C000809312010000DF91CF9108951F920F924A
:1001D00000905F000F92112400905B000F922F930C
:1001E0003F934F935F936F937F938F939F93AF93BF
:1001F000BF93EF93FF93CF93DF93CDB7DEB780919B
:10020000130190911401A0911501B091160101976D
:10021000A109B1098093130190931401A0931501D2
:10022000B09316018091130190911401A0911501D2
:10023000B0911601892B8A2B8B2B91F40E94DB0045
:1002400080910E0190910F01A0911001B0911101C8
:100250008093130190931401A0931501B09316019C
:100260000000DF91CF91FF91EF91BF91AF919F91EE
:100270008F917F916F915F914F913F912F910F904F
:1002800000925B000F9000925F000F901F901895F6
:10029000CF93DF9300D000D0CDB7DEB769837A83E8
:1002A0008B839C8389819A81AB81BC8180930E0171
:1002B00090930F01A0931001B093110180910E0152
:1002C00090910F01A0911001B09111018093130141
:1002D00090931401A0931501B093160100000F90A4
:1002E0000F900F900F90DF91CF910895CF93DF93F0
:1002F000CDB7DEB78091180190911901CC01A0E033
:10030000B0E040E050E027E030E0841B950B281778
:10031000390708F4F3C08A5B9F4FFC010C940A0371
:1003200085E290E027E02093170120911701FC015E
:10033000208382E090E09093190180931801E3C03C
:1003400080E290E0FC018081882F90E0809590957C
:1003500083709927039779F485E290E01092170152
:1003600020911701FC01208387E090E09093190110
:100370008093180125C080E290E0FC018081882FE5
:1003800090E08095909583709927019739F483E0E8
:1003900090E0909319018093180112C080E290E0E0
:1003A000FC018081882F90E080959095837099273B
:1003B000029731F484E090E0909319018093180142
:1003C00010921A01A0C085E090E0909319018093EB
:1003D000180199C086E090E090931901809318016C
:1003E00092C080E290E0FC018081882F90E08095AF
:1003F000909583709927039739F487E090E0909364
:100400001901809318017CC080E290E0FC0180819A
:10041000882F90E08095909583709927019799F4A3
:1004200080911A018F5F80931A0180911A018A309E
:1004300009F066C010921A0183E090E090931901D0
:10044000809318015DC082E090E090931901809341
:10045000180156C080E290E0FC018081882F90E076
:100460008095909583709927039739F487E090E001
:10047000909319018093180145C080E290E0FC013F
:100480008081882F90E080959095837099270297BE
:1004900091F480911A018F5F80931A0180911A0163
:1004A0008A3081F510921A0184E090E0909319014E
:1004B0008093180127C082E090E090931901809307
:1004C000180120C080E290E0FC018081882F90E03C
:1004D0008095909583709927039749F485E290E081
:1004E0001092170120911701FC0120830CC082E0BB
:1004F00090E0909319018093180105C0000003C09B
:10050000000001C000008091180190911901833012
:100510009105A1F08430910538F4009709F441C0A9
:10052000029709F440C044C08530910509F43DC0EC
:1005300085309105E8F00697D1F13AC08091170116
:10054000893051F489E08093170185E290E0209191
:100550001701FC0120832CC0809117018F5F8093CD
:10056000170185E290E020911701FC01208320C053
:1005700080911701882349F41092170185E290E0D9
:1005800020911701FC01208313C080911701815035
:100590008093170185E290E020911701FC012083F0
:1005A00007C0000005C0000003C0000001C000003B
:1005B0000000DF91CF910895CF93DF931F92CDB7C5
:1005C000DEB781E290E0FC01108282E290E02FEF42
:1005D000FC01208384E290E02FEFFC01208385E280
:1005E00090E0FC01108210921901109218011982FA
:1005F00064E670E080E090E00E9448010E9498006C
:100600000E9476010000809112018823E1F310928C
:100610001201F6CFEE0FFF1F0024001C0BBE079047
:0A062000F691E02D0994F894FFCF45
:10062A0000000002000000006F000000000001004E
:02063A000000BE
:00000001FF
